:020000040800F2
:10000000F0060020910100080F180008B917000839
:100010000D180008AD0500084D1A0008000000008A
:10002000000000000000000000000000131800089D
:10003000AF0500080000000011180008151800089E
:10004000AB010008AB010008AB010008AB010008E0
:10005000AB010008AB010008AB010008AB010008D0
:10006000AB010008AB010008AB010008AB010008C0
:10007000AB010008AB010008AB010008AB010008B0
:10008000AB010008AB010008CD040008AB0100087B
:10009000AB010008AB010008AB010008AB01000890
:1000A000AB010008AB010008AB010008AB01000880
:1000B000AB010008AB010008AB010008AB01000870
:1000C000AB010008AB010008AB010008AB01000860
:1000D000AB010008411A0008AB010008AB010008A1
:1000E000AB010008AB010008AB01000800F002F80A
:1000F00000F03FF80AA090E8000C82448344AAF183
:100100000107DA4501D100F034F8AFF2090EBAE880
:100110000F0013F0010F18BFFB1A43F0010318473B
:10012000DC190000FC190000103A24BF78C878C11F
:10013000FAD8520724BF30C830C144BF04680C60ED
:10014000704700000023002400250026103A28BF35
:1001500078C1FBD8520728BF30C148BF0B60704739
:10016000642900F07D80002070471FB51FBD10B5C9
:1001700010BD00F070F91146FFF7F7FF01F078FCB1
:1001800000F08EF903B4FFF7F2FF03BC00F096F91C
:100190000948804709480047FEE7FEE7FEE7FEE71B
:1001A000FEE7FEE7FEE7FEE7FEE7FEE70448054957
:1001B000054A064B7047000091180008ED00000842
:1001C000F0000020F0060020F0020020F0020020E5
:1001D0000FB41CB5074B06AA7B44694600900598EE
:1001E00000F021F90020694600F030F91CBC5DF8F0
:1001F00014FB0000710200002DE9F0410E46044698
:10020000002020622046E168884730B3252805D0C9
:10021000D4E901219047206A401CF2E7E1682046BA
:1002200000278847050018D0A5F14100192802D8F9
:1002300020354FF400673246294620462760FFF7F5
:100240008FFF40B1012804D0F61D26F007060836BE
:10025000D8E7361DD6E72846DAE7206ABDE8F08100
:100260002DE9F0410646002410687529314616A58F
:1002700010D0AFF30080002802DA404213A507E057
:1002800031688A0701D512A502E0490704D511A5F6
:10029000012401E0AFF3008000210A2206F12407C7
:1002A00009E0B0FBF2FCB0FBF2F302FB1C003030C3
:1002B00078541846491C0028F3D123462A46304674
:1002C000BDE8F04100F051B8000000002D00000032
:1002D0002B0000002000000010B5431C02E010F8C5
:1002E000011B71B18107FAD14FF0013202C88C1A9B
:1002F0008C4314EAC211F9D0C01A0A0603D0C01EFA
:1003000010BDC01A10BD0A0401D0801E10BD090224
:10031000FCD0401E10BD4FF0000200B513469446BD
:100320009646203922BFA0E80C50A0E80C50B1F14D
:100330002001BFF4F7AF090728BFA0E80C5048BF61
:100340000CC05DF804EB890028BF40F8042B08BFFF
:10035000704748BF20F8022B11F0804F18BF00F8FB
:10036000012B70477047704770472DE9F0470D46E5
:1003700099469246044600F124080168880604D58F
:10038000E06921F01001216000E00120A84201DDB8
:10039000471B00E00027A1697A1902EB0900081A3F
:1003A000A0612078C00602D42046AFF3008000266A
:1003B00008E0D4E901211AF806009047206A401CA1
:1003C000761C20624E45F4DB2078C0060AD5204614
:1003D000AFF3008006E0D4E9012130209047206A85
:1003E000401C2062381EA7F10107F4DC07E0D4E9C5
:1003F000012118F805009047206A401C2062281E41
:10040000A5F10105F3DC2046AFF30080207800065B
:1004100002D50220BDE8F0870120FBE701694A1CF4
:1004200002610878704700B58FB0CDE90131002135
:10043000059105497944CDE9031011466846FFF757
:10044000DBFE0FB000BD0000E5FFFFFF0A6802F809
:10045000010B0A607047754600F02CF8AE460500A7
:100460006946534620F00700854618B020B5FFF7CF
:100470009DFEBDE820404FF000064FF000074FF012
:1004800000084FF0000B21F00701AC46ACE8C009B2
:10049000ACE8C009ACE8C009ACE8C0098D467047BB
:1004A00010B50446AFF300802046BDE81040FFF7CA
:1004B00069BE0000004870479000002001491820E4
:1004C000ABBEFEE72600020070470000014800F0C6
:1004D00018B900001C00002070B50446006881684F
:1004E000C943C90717D1816821F00101816000F07B
:1004F00017FC05460AE000BF00F012FC401B022872
:1005000004D920688068C043C00706D0206880688E
:10051000C043C007F0D0002070BDA06A40F01000BA
:10052000A062E06A40F00100E062012070BD0000BE
:10053000F8B500260446009600688168C943C907DB
:100540002DD0816841F0010181601648164900688C
:10055000B0FBF1F000E0401E00900028FBD100F05D
:10056000DFFB054616E000BF00F0DAFB401B022867
:1005700010D920688068C043C0070BD0A06A40F043
:100580001000A062E06A40F00100E06284F824609C
:100590000120F8BD20688068C043C007E4D1002076
:1005A000F8BD00001800002040420F00FEE7704731
:1005B00070470000F8B50024009490F824202546E8
:1005C000012A12D0012280F824204A681F23072A1A
:1005D0000DD20668776B521E02EB820293409F4356
:1005E0000B6893401F43776319E00220F8BD06684B
:1005F0000D2A0AD2376BD21F02EB820293409F432F
:100600000B6893401F43376309E0F76A0D3A02EB2A
:10061000820293409F430B6893401F43F7620A682E
:10062000072306680A2A0AD3F7680A3A02EB42024D
:1006300093409F438B6893401F43F76008E03769FE
:1006400002EB420293409F438B6893401F43376104
:100650000A68102A01D0112A20D1124B02689A424E
:1006600017D193681B0219D4936843F40003936075
:100670000968102912D10C490C4A0968B1FBF2F142
:1006800001EB8101490000E0491E00910029FBD1E6
:1006900004E0816A41F020018162012480F8245045
:1006A0002046F8BD002401401800002040420F0001
:1006B00010B500680C49884214D10C4800F01EF8AF
:1006C0000B49024648600BA10948FFF781FD084825
:1006D000FFF702FE82B20548BDE810400449303001
:1006E00001F03DB810BD0000002401401C000020B6
:1006F0000000002025640D0A000000000068C06CA6
:10070000704710B5044600684168890626D501681F
:10071000890723D5A16AC90603D4A16A41F40071EF
:10072000A1628168C1F34241072910D1217B71B9CF
:10073000416821F020014160A06A20F48070A0622D
:10074000A06AC00403D4A06A40F00100A062204661
:10075000FFF7AEFF21686FF0120008602068416863
:1007600009062ED5016849072BD5A16AC90603D40D
:10077000A16A41F40051A1628168C1F302310729E5
:1007800009D04168490515D48168C1F34241072960
:1007900010D1217B71B9416821F080014160A06ACC
:1007A00020F48050A062A06AC00503D4A06A40F083
:1007B0000100A0622046FFF7FBFE21686FF00C00ED
:1007C00008602068416849060DD50068C0070AD056
:1007D000A06A40F48030A062204600F093F82168BF
:1007E0006FF00100086010BD2DE9F0414FF00007E7
:1007F00004003D467ED0A06A002628B9E66284F84F
:100800002460204600F080F82046FFF765FEA16ACC
:10081000C90600D420B1A06A40F01000A06269E0CF
:10082000A16A21F4885141F00201A1626268E16984
:10083000237B0A4347EA43010A43A1684FF48077C8
:10084000B94209D0012907D05FF0000194F814C023
:10085000BCF1010F02D00AE03946F7E7F3B1A36A11
:1008600043F02003A362E36A43F00103E3622368D9
:10087000D3F804C02CF4694C4CEA010CC3F804C052
:1008800021688B68DFF870C003EA0C0313438B60A8
:10089000A168B9420BD0012909D00CE0DFF85CC097
:1008A000A3690CEB43330B4343F40061DFE7218A78
:1008B0000D05A5F580152168CB6A23F470032B4341
:1008C000CB62216889680E4B1940914208D1E662DB
:1008D000A16A21F0020141F00101A162BDE8F081AD
:1008E000A06A20F0020040F01000A062E06A40F030
:1008F0000100E0620120F1E7FDF7E1FF00E0FFFF0A
:10090000FE0E1FFF7047000000B585B0002100916A
:1009100001910291039100681249884220D1124846
:10092000816941F400718161816901F40071049170
:10093000816941F0040181618069694600F0040029
:1009400004904020009003200190084800F0F8F83F
:1009500000220221122000F04FFA122000F03EFA8D
:1009600005B000BD00240140001002400008014015
:1009700070B5044690F8240001280DD0012084F8B9
:1009800024002046FFF7D4FD02004FF0000005D000
:1009900084F82400104670BD022070BDA16A40F6A4
:1009A0000163994341F48071A162224D2368224979
:1009B000AB4218D10E6816F4702F14D0A66A46F414
:1009C0008016A6620E68760505D5A66A26F400563E
:1009D00046F48056A662A66AF6040AD5E66A26F0B0
:1009E0000606E66206E0A66A26F48016A6625E683F
:1009F000E9E7E06284F824006FF0020018602068E4
:100A0000436843F02003436020688368C3F3424394
:100A1000072B05D1A84208D1096811F4702F04D022
:100A2000816841F480118160B4E7816841F4A001DC
:100A3000F9E70000002801400424014010B590F8B7
:100A400021100022022905D00421816380F8202092
:100A5000012010BD01680B6823F00E030B600168D4
:100A60000B6823F001030B6090F84030C46B012148
:100A700001FA03F3636080F8211080F8202010460B
:100A800010BD000010B590F821100024022903D0F9
:100A90000421816301243DE001680A6822F00E020E
:100AA0000A6001680A6822F001020A601A4A0168B5
:100AB000914201D1012121E0174A1432914201D122
:100AC00010211BE0144A2832914201D1891515E00A
:100AD000114A3C32914201D189140FE00E4A503242
:100AE000914202D14FF4803108E00B4A64329142C6
:100AF00002D14FF4801101E04FF08071064A083AAC
:100B00005160012180F82110002180F82010416BF4
:100B100001B18847204610BD0800024070B5044668
:100B200000F0FEF80546601C02D00448007804443A
:100B300000F0F6F8401BA042FAD370BD0C00002074
:100B40002DE9F84FDFF8B891002409F1040A0AF101
:100B5000040B23460F270BF1040EC9E00125A54025
:100B60002A40AA427DD1674ED1F804C0ACEB0608FA
:100B7000B44532D014DCBCF1030F3AD009DCBCF12F
:100B8000000F2AD0BCF1010F1CD0BCF1020F31D1F3
:100B90001DE0BCF1110F17D0BCF1120F2AD119E0E2
:100BA000B8F5881F19D006DCB8F5803F15D0B8F528
:100BB000801F1FD111E0B8F5001F0ED0B8F5041F3B
:100BC00018D10AE0CB6815E0CB681B1D12E0CB689A
:100BD00008330FE0CB680C330CE08B682BB1012B92
:100BE0004FF0080303D0456104E0042302E00561EF
:100BF00000E00023FF2A01D8064601E000F10406C8
:100C00004FEA840501D9A5F12005D6F8008007FA3E
:100C100005FC28EA0C0803FA05F548EA0508C6F8B9
:100C200000804D68ED0062D5374DAE6946F0010693
:100C3000AE61AD6924F0030605F001050095334D62
:100C400006EB050CDCF80850A607360F07FA06F885
:100C500025EA0805DFF8B880404503D14FF00008C9
:100C600017E044E0DFF8AC80404502D14FF00108C6
:100C70000FE0DFF8A480404502D14FF0020808E001
:100C8000DFF89880404502D14FF0030801E04FF0B3
:100C9000040808FA06F848EA0508CCF808804D6808
:100CA000D9F80060ED034D4601D5164300E09643A8
:100CB0002E604D68DAF80060AD03554601D5164345
:100CC00000E096432E604D68DBF80060ED025D4663
:100CD00001D5164300E096432E604D68DEF80060B3
:100CE000AD02754601D5164300E096432E60641CA4
:100CF0000D682A46E5407FF431AFBDE8F88F00006B
:100D000000040140000011100010024000000140EA
:100D100000080140000C0140001001400014014097
:100D200001488068704700000C000020024881687C
:100D300002781144816070470C000020074810B50C
:100D4000016841F010010160032000F075F80F20E8
:100D500000F006F800F024F8002010BD002002404A
:100D600070B50D4D04464FF47A712878B1FBF0F060
:100D70000A490968B1FBF0F000F062FB48B9102C99
:100D800007D200222146501E00F036F800206C6089
:100D900070BD012070BD00000C0000201800002074
:100DA0000C4808B5816941F001018161816901F058
:100DB00001010091C16941F08051C161C06900F039
:100DC000805000900448416821F0E06141F00071DA
:100DD000416008BD0010024000000140002809DB0E
:100DE00000F01F02012191404009800000F1E02045
:100DF000C0F8001170470000F0B40E4B1B680C46A1
:100E0000C3F30223C3F10705042D00D90425191DDE
:100E1000072901D2002300E0DB1E012606FA05F1B6
:100E2000491E214099409E40761E16403143F0BC39
:100E300000F00DBE0CED00E0064900F00702086866
:100E40004FF6FF03184040EA0220034A10430860AF
:100E5000704700000CED00E00000FA052DE9F843B2
:100E600005460078354CC00754D0E0690026C00024
:100E700008D4E06940F08050E061E069012600F0AC
:100E8000805000902E480168C90512D40168804640
:100E900041F480710160FFF743FF074605E000BFA2
:100EA000FFF73EFFC01B642823D8D8F80000C00518
:100EB000F6D5206A10F4407021D0A98801F4407161
:100EC00081421CD0206A1F49012220F440700A6030
:100ED00000220A602062C00711D0FFF721FF0746F9
:100EE00041F2883808E000BFFFF71AFFC11B4145F7
:100EF00002D90320BDE8F883206A8007F4D5206A70
:100F0000696820F44070084320621EB1E06920F057
:100F10008050E0612878800705D56068A96820F4D2
:100F20004040084360602878C00605D56068E968DD
:100F300020F48000084360600020DBE700100240DE
:100F400000700040400442422DE9F0470F46050082
:100F500061D0434E306800F00700B84209D23068D3
:100F600020F0070038433060306800F00700B842D6
:100F700051D128683B4C810712D5400703D56068E2
:100F800040F4E06060602878000703D5606840F4B2
:100F9000605060606068A96820F0F00008436060FD
:100FA0002878C00728D06868012810D02168022856
:100FB00010D0890700292EDA616821F0030101436E
:100FC0006160FFF7ADFE804641F288390DE021688F
:100FD0008903EFE78901EDE7FFF7A2FEA0EB080127
:100FE000494502D90320BDE8F0876068696800F0D0
:100FF0000C00B0EB810FEFD1306800F00700B84271
:101000000BD9306820F0070038433060306800F0BA
:101010000700B84201D00120E5E72878400705D550
:101020006068E96820F4E0600843606028780007A1
:1010300006D56068296920F4605040EAC10060600C
:1010400000F038F86168084AC1F30311515CC840E8
:101050000649086006480068FFF782FE0020C2E7E4
:101060000020024000100240E41A0008180000208E
:10107000100000200448054900684968044AC1F38B
:101080000221515CC8407047180000200010024047
:10109000F41A00080448054900684968044AC1F385
:1010A000C221515CC8407047180000200010024067
:1010B000F41A000812A185B00FC98DE80F0014A022
:1010C000144A006804905168134801F00C03042B83
:1010D00010D0082B0ED1C1F38343C9031DF80300C0
:1010E0000AD5516804AAC1F34041515C0A4A5043F1
:1010F000B0FBF1F005B0704708494843FAE700003B
:1011000002030405060708090A0B0C0D0E0F101048
:10111000010200000010024000127A0000093D00A8
:101120002DE9F84F040070D02078C04DC00749D099
:101130006868C0F38100012807D06868C0F38100A7
:10114000022809D16868C00306D52868800339D50C
:1011500060680028E7D035E06068B0F5803F0BD0CC
:1011600010B1B0F5A02F11D0286820F4803028608D
:10117000286820F4802002E0286840F4803028604D
:10118000606890B1FFF7CCFD06460AE0286840F49D
:1011900080202860F0E700BFFFF7C2FD801B6428B5
:1011A00073D828688003F7D50CE0FFF7B9FD064631
:1011B00005E000BFFFF7B4FD801B6428F0D8286865
:1011C0008003F7D420789A4E80074FF001094FF042
:1011D000000839D5686810F00C0F07D06868C0F3B4
:1011E0008100022809D16868C00306D428688007F6
:1011F00014D52069012808D110E02069B0B1C6F8E3
:101200000090FFF78DFD074605E00AE1FFF788FD36
:10121000C01B0228C4D828688007F7D528686169F0
:1012200020F0F80040EAC10028600DE0C6F8008018
:10123000FFF776FD074604E0FFF772FDC01B0228AA
:1012400023D828688007F7D4207800072CD5794860
:10125000A169D9B1C0F80090FFF762FD074604E02C
:10126000FFF75EFDC01B02280FD8686A8007F7D51C
:1012700071484FF4FA510068B0FBF1F0009000BFE4
:101280000098411E0091FAD20EE080E0C0F8008084
:10129000FFF746FD074604E0FFF742FDC01B0228AA
:1012A00075D8686A8007F7D42078400760D5E86968
:1012B0000027C00008D4E86940F08050E861E86980
:1012C000012700F0805000905C480168C90513D4E4
:1012D0000168834641F480710160FFF721FD824679
:1012E00006E000BFFFF71CFDA0EB0A0064284ED803
:1012F000DBF80000C005F5D5E06801280AD008B188
:10130000052813D0286A20F001002862286A20F0FE
:10131000040002E0286A40F001002862E06841F21F
:10132000883B98B1FFF7FCFC82460BE0286A40F04E
:1013300004002862EEE700BFFFF7F2FCA0EB0A0111
:1013400059455AD8286A8007F6D50CE0FFF7E8FC23
:10135000824605E0FFF7E4FCA0EB0A0159454CD8B2
:10136000286A8007F6D41FB1E86920F08050E86150
:10137000E06988B36968C1F38101022944D0022879
:10138000C6F8608004D0FFF7CBFC044638E034E0B8
:10139000FFF7C6FC074604E0FFF7C2FCC01B0228AB
:1013A0002BD828688001F7D4206AB0F5803F05D19A
:1013B0006868A16820F4003008436860D4E9080137
:1013C0000843696821F4741108436860C6F86090A6
:1013D000FFF7A6FC044606E025E000BFFFF7A0FCEF
:1013E000001B022809D828688001F7D51BE000BF40
:1013F000FFF796FC001B022802D90320BDE8F88FF6
:1014000028688001F4D40EE00128F7D06868226AC9
:1014100000F48031914204D1616A00F47010884276
:1014200001D00120EAE70020E8E7000000100240B8
:101430000000424280044242180000200070004038
:1014400010B5401EB0F1807F01D3012010BD4FF0D8
:10145000E02460610F21601700F0F9FA0020A0611C
:1014600007202061002010BD70477047F8B5026862
:1014700004461068D168536910F00F0F4FF0000553
:1014800053D003F0010601F4907737435FD0C207D1
:1014900005D0CA0503D5226C42F00102226442073E
:1014A00005D5DA0703D0226C42F0020222648207DB
:1014B00005D5DA0703D0226C42F004022264020749
:1014C00007D501F02002324303D0226C42F008021B
:1014D0002264226C002A34D0800604D5880602D506
:1014E000204600F0F6F920684069216CC0F38010B6
:1014F000090700D430B3204600F0D3F920684169D1
:1015000049061BD5416921F040014161A06BA8B19A
:1015100058494163A06BFFF7B5FA002811D0A06BC2
:10152000416B01B0BDE8F040084783060FD58B063C
:101530000DD52046BDE8F84000F0CBB92046FFF7B6
:1015400094FFF8BD2046FFF790FF2564F8BD266B99
:101550002023012E52D1C60650D5CE064ED5106896
:1015600050680090506940062AD5A16B0868406811
:101570000004000CEAD0A68D8642E7D9E085886990
:10158000202818D0D06820F48070D060206841698D
:1015900021F0010141612068416921F04001416170
:1015A00084F83E3025632068C16821F01001C160D5
:1015B000A06BFFF743FAA08DE18D401A81B219E0CC
:1015C000A08DE18D401A81B2E08D0028BED00029A7
:1015D000BCD0D06820F49070D0602068426922F0BE
:1015E0000102426184F83E3025632068C26822F01F
:1015F0001002C2602046FFF737FFF8BD05062BD565
:101600000D0629D594F83D002128F6D1A068B0F543
:10161000805F01D12069B0B1206A411C216221683C
:1016200000784860E08C401E0004000CE084E4D1A7
:101630002068C16821F08001C1602068C16841F064
:101640004001C160F8BD206A0088C0F30800506006
:10165000206A801C2062E5E74006F3D54806F1D5F4
:10166000D168204621F04001D16084F83D3000F07F
:1016700095F8F8BD9318000870B5040004D094F8EC
:101680003D00002510B106E0012070BD84F83C50FB
:10169000204600F023F8242084F83D002068C1682B
:1016A00021F40051C160204600F06EF92068016904
:1016B00021F4904101612068416921F02A014161D2
:1016C0002068C16841F40051C1602564202084F87D
:1016D0003D0084F83E00002070BD000030B585B0AC
:1016E00000240094019402940394006818498842ED
:1016F0002CD11848816941F480418161816901F4EC
:1017000080410491816941F0040181618069124D39
:1017100000F0040004904FF400700090022001904B
:101720000320039069462846FFF70AFA2815CDE9F9
:101730000004694628460294FFF702FA00220121BC
:101740002520FFF759FB2520FFF748FB05B030BDEA
:10175000003801400010024000080140704790F836
:101760003D30202B18D1A9B1A2B190F83C30012B0B
:1017700012D001628284C28400210164212280F897
:101780003D2080F83C100068C16841F08001C160D4
:10179000002070470120704702207047006804490C
:1017A000884203D103488168491C8160704700006A
:1017B0000038014000000020FEE700003EB5002494
:1017C00011480094019402940E49846001600473EE
:1017D0000475012505614FF460214460C161FFF784
:1017E00003F808B172B6FEE70620CDE900056946A8
:1017F00002940548FEF7DEFE002801D072B6FEE72F
:101800003EBD0000002401401C000020FEE7FEE772
:1018100070477047FFF78ABA30B593B02821684601
:10182000FEF779FD14210AA8FEF775FD00250120B9
:101830000F9510951195010412958DE823000490E1
:101840004FF4E010CDE90810022407946846FFF732
:1018500067FC08B172B6FEE70AA90F2081E83100E3
:101860004FF48060CDE90D0502210AA8FFF76CFB5B
:1018700008B172B6FEE74FF4004011900F940FA824
:10188000FFF7ECFA002801D072B6FEE713B030BDC6
:10189000704710B5406A0021C185C184FFF7E5FD9E
:1018A00010BD0168CA6822F49072CA6001684A6972
:1018B00022F001024A61016B012904D10168CA6862
:1018C00022F01002CA60202180F83E10002101633E
:1018D000704708B590F83E10222901D0022008BDBB
:1018E00082684FF480539A4201D1016921B1816A23
:1018F0009A421BD04AB10AE00268816A5268C2F378
:1019000008020A80816A891C08E0026972B10268D3
:10191000526802F07F020A70816A491C8162C18D9F
:10192000491E0904090CC18503D019E002685268F8
:10193000F1E70168CA6822F02002CA600168CA683B
:1019400022F48072CA6001684A6922F001024A6189
:10195000202180F83E10016B012903D0FFF7FEFE25
:10196000002008BD002101630168CA6822F010024E
:10197000CA6001680A68D20602D50A6849680091FF
:10198000818DFFF771FDEBE770B5044600680169D2
:10199000E26821F44051114301612169A0680843C4
:1019A000616908432168CA6841F20C639A430243A3
:1019B000CA6020684169A26921F440711143416104
:1019C0001E492068884202D1FFF764FB01E0FFF75F
:1019D00051FB00EBC00101EB001260686421800044
:1019E000B2FBF0F3B3FBF1F36FF018067343B2FBF5
:1019F000F0F5B2FBF0F605EB8305322303EB05159A
:101A0000B5FBF1F5B6FBF1F605F0F00505EB0615B3
:101A1000B2FBF0F6B2FBF0F0B0FBF1F06FF01802A1
:101A2000504306EB800003EB0010B0FBF1F021689F
:101A300000F00F002844886070BD000000380140AD
:101A40000148FFF713BD00004C000020FEE7090726
:101A5000090E002804DB00F1E02080F80014704734
:101A600000F00F0000F1E02080F8141D7047000026
:101A700008B5FFF763F9FFF7CFFE1748816941F01A
:101A800020018161816901F020010091816941F0AB
:101A900004018161806900F004000090FFF78EFE70
:101AA0000F480E490C2201604FF4E13141600021E2
:101AB0008160C160C0E904128161C161FFF7DCFD92
:101AC00008B172B6FEE706483038FEF751FF142021
:101AD000FFF724F8F7E7000000100240003801404B
:101AE0004C00002000000000000000000102030480
:101AF0000607080900000000010203041C1B00087F
:101B0000000000201C00000028010008381B00080D
:101B10001C000020D4060000440100080000000062
:101B200000000000000000000100000010000000A4
:081B3000000000000024F40095
:04000005080000ED02
:00000001FF
